:020000040001F9
:1020000078510020D5240100DD240100A124010025
:10201000E1240100E3240100E524010000000000A8
:10202000000000000000000000000000E7240100A4
:10203000E924010000000000EB240100ED24010070
:10204000ED290100EF2401000D300100EF24010013
:10205000EF240100EF240100F5260100EF24010028
:10206000EF240100EF240100EF240100EF24010020
:10207000EF240100EF240100EF240100EF24010010
:10208000EF2401003D2A0100EF240100EF240100AC
:10209000772D0100EF240100812D0100EF240100C4
:1020A000EF240100EF240100EF240100EF240100E0
:1020B000EF240100EF2401000000000000000000F8
:1020C000EF240100EF240100EF240100EF240100C0
:1020D000EF240100EF240100EF24010000000000C4
:1020E00000000000000000000000000000000000F0
:1020F00000000000000000000000000000000000E0
:1021000000000000000000000000000000000000CF
:1021100000000000000000000000000000000000BF
:1024000000F002F800F03CF80AA090E8000C8244CA
:102410008344AAF10107DA4501D100F031F8AFF2A7
:10242000090EBAE80F0013F0010F18BFFB1A43F0B2
:1024300001031847B43C0000D43C0000103A24BF0C
:1024400078C878C1FAD8520724BF30C830C144BF19
:1024500004680C607047000000230024002500265B
:10246000103A28BF78C1FBD8520728BF30C148BFF7
:102470000B6070471FB503F0DBFD1FBD10B510BD2D
:1024800000F005F91146FFF7F5FF01F08DFF00F0B0
:1024900023F903B4FFF7F2FF03BC00F09FFF000035
:1024A000094B1EF0040F1CBFEFF309801847EFF330
:1024B00008800649064A884201D8904202D88D46D3
:1024C0004FF00000184700002D290100785100202E
:1024D000783100200948804709480047FEE7FEE7B9
:1024E000FEE7FEE7FEE7FEE7FEE7FEE7FEE7FEE7C4
:1024F00004480549054A064B70470000C12D0100FC
:10250000012401007811002078510020783100204A
:102510007831002040EA0103024630B59B0710D114
:102520004FF0013400E008C208C91D1B9D4315EAA5
:10253000C41FF8D013F0FF0102F8011B0DD01B0AD5
:10254000F8E711F8013B002B02F8013B05D011F828
:10255000013B002B02F8013BF3D130BD10B5431C09
:1025600002E010F8011B71B18107FAD14FF001327E
:1025700002C88C1A8C4314EAC211F9D0C01A0A0698
:1025800003D0C01E10BDC01A10BD0A0401D0801EA9
:1025900010BD0902FCD0401E10BD032A40F230805D
:1025A00010F0030C00F0158011F8013BBCF1020F94
:1025B000624498BF11F801CB00F8013B38BF11F815
:1025C000013BA2F1040298BF00F801CB38BF00F82C
:1025D000013B11F0030300F02580083AC0F00880A9
:1025E00051F8043B083A51F804CBA0E80810F5E78D
:1025F000121D5CBF51F8043B40F8043BAFF3008070
:10260000D20724BF11F8013B11F801CB48BF11F8E4
:10261000012B24BF00F8013B00F801CB48BF00F8B4
:10262000012B704710B5203AC0F00B80B1E818506C
:10263000203AA0E81850B1E81850A0E81850BFF4AC
:10264000F5AF5FEA027C24BFB1E81850A0E818504B
:1026500044BF18C918C0BDE810405FEA827C24BF9F
:1026600051F8043B40F8043B08BF7047D20728BF2D
:1026700031F8023B48BF11F8012B28BF20F8023B7C
:1026800048BF00F8012B7047704770477047754688
:1026900000F02CF8AE4605006946534620F00700CE
:1026A000854618B020B5FFF723FFBDE820404FF066
:1026B00000064FF000074FF000084FF0000B21F02C
:1026C0000701AC46ACE8C009ACE8C009ACE8C009F9
:1026D000ACE8C0098D46704710B50446AFF30080E2
:1026E0002046BDE81040FFF7D4BE00000048704708
:1026F000141100202DE9F04F89B04FF000080020A0
:1027000008904FF4807007900126002413E007988A
:1027100002F05CFE48B100BF81480068304020B143
:10272000079802F045FE48EA060876000798001D63
:1027300080B20790641C082CE9D34FF4BE7002F0FD
:1027400045FE50B14FF4BE7002F032FE48F0004832
:1027500008AA0121002002F011FE08F0FF0000B3DA
:10276000012600241BE006EA0800B0B100BF6D4856
:1027700050F82400C0F30420074600BF694850F811
:102780002400C0F301408146204601F023FA0546AB
:1027900015B149463846A84700BF7600641C082C8E
:1027A000E1D308F0004000287ED00020069005907C
:1027B000002505E04FF0FF3004A941F825006D1C0D
:1027C000002DF7D000BF0020069000246FE056488F
:1027D000005D0390039820F0C00753480057401C49
:1027E000002863D004A9384602F016F800285DD00E
:1027F00003984FEA901A384601F034FA814601F006
:10280000E9F90290029810B9BAF1030F4BD1BAF16D
:10281000030F11D1394605A80246CB0801F0070184
:1028200012F803C04FF0010E0EFA01FE4CEA0E0C36
:1028300002F803C000BF00BF00BF00BF4FF0A041BF
:10284000084600F5E06151F82710C1F3014900BFC7
:1028500008A9384601F0E0FF8346BBF1000F02D023
:10286000B9F1020F05D0BBF1000F1BD1B9F1030F75
:1028700018D1BAF1030F0FD1B9F1020F01D1032022
:1028800000E0022001903846019902F030FD0698E0
:10289000401CC0B2069000BF029818B1514638469D
:1028A000029A904700BF00E036E000BF641C042C91
:1028B0008DD3069858B3012703AA0121002002F006
:1028C0005DFD00250AE003A850F8250008A951F88D
:1028D0002510884201D0002702E06D1C002DF2D0A7
:1028E00000BF17B10020069010E000250CE003A8FF
:1028F00050F8250008A941F8250005A850F8250042
:1029000004A941F825006D1C002DF0D000BF0698E9
:1029100000287FF458AF00BF09B0BDE8F08F000079
:102920000463004010650040140E00200446204659
:1029300000F000F800BF00BF00BF00BF00BFBFF342
:102940004F8F00BF00BF00BF0948006800F4E0607F
:1029500008490843001D0649086000BF00BF00BFCA
:10296000BFF34F8F00BF00BF00BF00BF00BFFDE738
:102970000CED00E00000FA0500F01F02012191407B
:10298000024A430942F823107047000080E200E049
:1029900000F01F0201219140024A430942F823102E
:1029A0007047000080E100E000F01F02012191402B
:1029B0004209920002F1E022C2F80011704700F0D3
:1029C0001F02012191404209920002F1E022C2F867
:1029D0000011704700F01F0201219140024A430993
:1029E00042F823107047000000E200E010B54FF4F9
:1029F000807001F01CFF60B14FF4807001F020FF87
:102A0000012001F027FF01200B494870002001F050
:102A10002FF94FF4827001F00AFF58B14FF4827021
:102A200001F00EFF022001F015FF0120024988701D
:102A300001F01EF910BD0000B00D002010B50020FF
:102A40000949086000210948C0F84411C0F848113C
:102A5000C0F84C1100200549C1F8000102493C3979
:102A6000086003F025F810BD40110140001001403E
:102A70002DE9FC4104460D46164600BF0C4800787F
:102A800008B900F0D5FA00BF002001900090684618
:102A900000F0F4FF32462946204600F00BF80746C6
:102AA00000BF9DF8000000F0EFFF3846BDE8FC8154
:102AB000781000202DE9F047074688461646C246A2
:102AC00007EB47011B4800EBC109D9F8140020B1FE
:102AD000012811D0022826D11EE0484600F0E0FA75
:102AE0000546B54201D2002405E03446324651463F
:102AF000484600F02AFC18E0484600F0D1FA0546A6
:102B0000B54201D2284600E03046044622465146EE
:102B1000484600F01AFC08E032465146484600F0AC
:102B2000DBFB044601E0002400BF00BF2046BDE8F7
:102B3000F08700009010002070B505460C46204636
:102B4000FFF70CFD0646324621462846FFF790FF68
:102B500070BD0FB438B5044606A800906A462046FA
:102B6000059900F003F838BC5DF814FB2DE9F04F2F
:102B700099B082460D46144603A814904020159043
:102B800000201690CDF860A0179000BF2E786D1C25
:102B900006B9DDE0252E79D100274FF0010900BFED
:102BA0002E78232E12D02B2E0CD02D2E02D0302E8C
:102BB00010D103E047F001076D1C0EE047F002075B
:102BC0006D1C0AE047F004076D1C06E047F008079B
:102BD0006D1C02E04FF0000900BF00BFB9F1000F0B
:102BE000DED14FF0000800BF2E78302E01DB392EE9
:102BF00000DD07E06D1CA6F1300008EB880100EB5A
:102C00004108F1E700BF002013902E782E2E12D13C
:102C10006D1C00BF2E78302E01DB392E00DD09E05F
:102C20006D1CA6F13000139901EB810100EB41000E
:102C30001390EFE700BF2E7800BF6C2E01D0682EF6
:102C400002D12E786D1C00E000E0F6E700BF702E88
:102C50005DD008DC252E6AD0582E35D0632E09D0E1
:102C6000642E69D113E0732E3CD0752E1DD0782EC2
:102C700062D128E02168081D2060D1F8009009F099
:102C8000FF0B594614A800F005FB56E058E02168F8
:102C9000081D2060D1F80090CDE900870A2249463E
:102CA00014A8139B00F00AFA47E02168081D206071
:102CB000D1F80090CDE900870A22494614A8139B59
:102CC00000F072FA39E000BF2168081D2060D1F8D9
:102CD0000090CDE900871022494614A8139B00F00C
:102CE00063FA2AE02168081D2060D1F800B000BF17
:102CF0009BF800600BF1010B06B906E0314614A801
:102D000000F0C8FA17980028F2DA00BF15E0216831
:102D1000081D2060D1F80090002008210B461022E9
:102D2000CDE90010494614A800F03EFA05E025213F
:102D300014A800F0AFFA00E000BF00BF6D1C03E074
:102D4000314614A800F0A6FA17980028BFF61EAF67
:102D500000BF179800280ADD169820B103A9504635
:102D6000169AFFF785FEDDE91610084417901798AC
:102D700019B0BDE8F08F10B502F000FE10BD0000E4
:102D800070B50A48006868B1084800688047044682
:102D900000BF254625B100BF284600F049FD00BF11
:102DA00000BF01E001F0A4F970BD0000040B002099
:102DB00001480249086070470090D003140B0020BE
:102DC00010B501F011F810B182488349486701F04D
:102DD00023F828B181480068C0F342308049086078
:102DE00001F044F828B17F48006820F080707D49E8
:102DF000086001F053F848B100207B4908604FF0AB
:102E00008041C1F810017649091F086001F070F88F
:102E100018B1032072496431086001F081F868B18B
:102E2000052072490860012070497831086000204F
:102E30006E49083108603F20091F086001F088F8DA
:102E4000002855D06A4800686A4908606848001D33
:102E50000068091D0860664808300068091D0860A0
:102E600063480C300068091D086061481030006834
:102E7000091D08605E4814300068091D08605C4840
:102E8000183000685B492031086059481C300068E0
:102E9000091D0860564820300068091D0860544824
:102EA00024300068091D0860514828300068091D59
:102EB00008604F482C300068091D08604C483030CD
:102EC00000684C4940310860494834300068091DA9
:102ED0000860474838300068091D086044483C30A5
:102EE0000068091D0860424840300068091D0860FC
:102EF00000F050FF30B139481430006800F04F0046
:102F00003D49086037487438006840F4700035491E
:102F10007439086000BF00BF00BFBFF34F8F00BF10
:102F200000BF00BF00BF00BF00BFBFF36F8F00BF77
:102F300000BF00BF3148006800F0004030B92F48A2
:102F4000001D006800F00040002840D001202C49FE
:102F5000086000BF2B4800680028FBD015202749D7
:102F6000086000BF274800680028FBD015212348CF
:102F7000001D016000BF234800680028FBD000202E
:102F80001F49086000BF1F4800680028FBD000BF31
:102F900000BF00BF00BF00BFBFF34F8F00BF00BF27
:102FA00000BF1048F038006800F4E060164908439C
:102FB000001D0C49F039086000BF00BF00BFBFF31F
:102FC0004F8F00BF00BF00BF00BF00BFFDE7FFF78E
:102FD000EFFE10BD0DF0ADBA00C007404402001076
:102FE0003C050040FCED00E00C01004010560040A4
:102FF0000404001020C50040E40E00400012001040
:1030000004E5014000E401400000FA0510B506485F
:10301000007F20B10449054802F084FF03E0024923
:10302000024802F0BDFE10BD1C0E00200020004032
:1030300010B5124C02202061606111A0A0611349FB
:10304000E1614FF4007121620021A1626162E162DD
:103050000BA0A0640E49E164102121650021A16547
:103060006165E1650BA1E01DFFF754FA0AA1204656
:10307000FFF750FA2020A07110BD0000781000204A
:103080005465726D696E616C00000000680E00206E
:1030900068100020525454005345474745520000E1
:1030A00010B501460A69CB689A4204D88C68641E40
:1030B000E41AA01801E0D41A601E10BD2DE9FC5FCF
:1030C00006460F4692469846DDE90C45002F01DA88
:1030D000784200E0384683464FF0010903E09BFB4D
:1030E000FAFB09F10109D345F9DAC84500D9C1460F
:1030F00034B1002F03DB05F00400042800D1641E66
:1031000005F0020010B1B8F1000F11D005F0010078
:1031100070B96CB108E0641E2021304600F0BAF8A6
:10312000F068002800DA02E00CB1A145F3D300BF3B
:10313000F068002836DB002F05DA7F422D2130466B
:1031400000F0A8F807E005F00400042803D12B21C3
:10315000304600F09FF8F068002823DB05F00200FD
:10316000022814D105F0010088B9B8F1000F0ED182
:103170006CB108E0641E3021304600F08BF8F06836
:10318000002800DA02E00CB1A145F3D300BFF068DB
:10319000002807DB4346524639463046CDE9004514
:1031A00000F002F8BDE8FC9F2DE9FC5F80468946EF
:1031B00015461E460C9CCDF804900127BB4605E041
:1031C0000198B0FBF5F001900BF1010B0198A842BA
:1031D000F6D25E4500D9B3460D9800F00100D0B993
:1031E000CCB10D9800F00200022803D116B93020AE
:1031F000009001E02020009009E0641E4046009904
:1032000000F048F8D8F80C00002800DA02E00CB111
:10321000A345F2D300BFD8F80C00002835DB09E045
:10322000012E01D9761E04E0B9FBF7FAAA4500D2B7
:1032300001E06F43F4E700BF00BFB9FBF7FA0AFBF8
:103240001799134810F80A10404600F023F8D8F8F0
:103250000C00002800DA03E0B7FBF5F7002FECD1F3
:1032600000BF0D9800F0010078B174B109E0641E50
:103270002021404600F00EF8D8F80C00002800DAB3
:1032800002E00CB1A345F2D300BFBDE8FC9F0000F3
:10329000D860010070B504460E46A568681C6168D8
:1032A000814206D320684655681CA060E068401C37
:1032B000E060D4E9011088420DD1A268216820693C
:1032C000FFF7D6FBA168884203D04FF0FF30E060E3
:1032D00001E00020A06070BD2DE9F047044689465A
:1032E00017464FF0000AE56800BFD4F81080A845E3
:1032F00003D9A8EB0500461E04E0A5EB0800401C1E
:10330000A1680E1AA068401BB04201D9304601E006
:10331000A068401B0646BE4201D2304600E0384657
:1033200006466168481932464946FFF736F9B24405
:10333000B144BF1B3544A068A84200D10025E56018
:10334000002FD2D15046BDE8F0872DE9F047044662
:1033500089461546E668A068871BAF4208D96168B0
:1033600088192A464946FFF718F97019E06010E0FD
:10337000B8466168881942464946FFF70EF9A5EB41
:10338000070809EB070142466068FFF706F9C4F831
:103390000C80BDE8F08700000146202908DA0120F2
:1033A00088400A4A104008B1012070470020FCE71D
:1033B000402909DAA1F12000012202FA00F008B147
:1033C0000120F2E70020F0E70120EEE7FC06FFBD58
:1033D00000BFEFF31081084672B6704700BFFEE7EA
:1033E00010B50448007820B902F0BCFC0220014965
:1033F000087010BDB00A002070B50D480068A8B96B
:1034000000200C4908700C4800210160416000F068
:103410005DFA00F053FA044600BF254625B100BF0F
:10342000284600F005FA00BF00BF00BF70BD0000D5
:10343000A00A0020B00A0020230B002070B51E490E
:103440000120CCDF044600BF254625B100BF284639
:1034500000F0EEF900BF00BF0023184802781946BB
:103460001846C2DF044600BF254625B100BF2846E6
:1034700000F0DEF900BF00BF06210020D6DF0446C1
:1034800000BF254625B100BF284600F0D1F900BF96
:1034900000BF002204211046CFDF044600BF2546AE
:1034A00025B100BF284600F0C3F900BF00BF0020CF
:1034B0000349086070BD00003C600100890A0020DB
:1034C000A40A002070B5054695F8200000287AD19E
:1034D0002C4695F82100052861D006DC012873D020
:1034E000022872D0032871D172E0062843D0072841
:1034F0006DD08028F7D100206949086060784E2897
:103500001BD168480068C0B9002067490860A27AEA
:1035100066A1FFF71EFB4E206749487000208870A7
:10352000C91CD4F803200A60D4F8070048600120C1
:103530006249086000205A49086060784F2819D114
:103540000020574908606079A0B1A37962795CA135
:103550000020FFF7FEFA4F2057494870002088707E
:10356000C91CD4F803200A60D4F807004860012081
:103570005249086090E059A10020FFF7DDFA402091
:1035800059494870002088700120C87006200871D1
:103590000520564908600220484908607CE054A193
:1035A0000020FFF7C9FA40204F494870002088707A
:1035B0000120C870052008710220404908600520DC
:1035C0004A49086068E069E035E015E063E048E0FA
:1035D0004BA10020FFF7B0FA40204349487000207B
:1035E00088700120C87003200871022033490860E8
:1035F00005203E4908604FE02A480068D0B92848B5
:103600000068401C2649086008460068022811DD51
:103610003DA10020FFF790FA402033494870002078
:1036200088700120C87002200871244908600520B4
:103630002E49086030E037A10020FFF77DFA4020D6
:1036400029494870002088700120C8700871052041
:1036500026490860022019490860002010490860C6
:103660001AE031A10020FFF767FA00203349086013
:1036700040201D494870002088700120C870072034
:10368000087105201949086002200C4908600020D3
:103690000349086000E000BF00BF00BF70BD00002C
:1036A000900A00209C0A0020940A002042432044F3
:1036B0006174612025640000180B0020A80A002016
:1036C00041434B20446174612069732025642C20A0
:1036D0006D7367362069732025640A0054582046AC
:1036E00061696C200A000000B10A0020980A0020DD
:1036F00054582053756363657373200A00000000FB
:103700005458200A000000005258204661696C207D
:1037100000000000525820536561726368205469AC
:103720006D656F7574200A004368616E6E656C206C
:10373000636C6F736564200A00000000A40A002017
:1037400070B505462A4608210020C8DF044644F229
:103750002100844204D10CA10020FFF7FAF912E005
:1037600044F21F00844204D10BA10020FFF7F1F9BD
:1037700009E044F21500844205D10BA10020FFF7B7
:10378000E8F90020C5DF70BD4572726F7220547277
:10379000616E7366657200005472616E7366657265
:1037A000206275737900000077726F6E6720737402
:1037B0006174650070B50446224608210020C7DF09
:1037C000054600BF2E4626B100BF304600F030F857
:1037D00000BF00BF70BD00000EB5034A07CA8DE8E8
:1037E00007006846FADF0EBD6460010000BF00BF3D
:1037F00000BF00BF00BFBFF34F8F00BF00BF00BFBF
:103800000948006800F4E06008490843001D0649C3
:10381000086000BF00BF00BFBFF34F8F00BF00BFF5
:1038200000BF00BF00BFFDE70CED00E00000FA059F
:103830003EB50446002000900190029002946A4632
:10384000002144F20100FFF7D1FF3EBD0146C868E8
:1038500088600020704770B504460D46204600F091
:10386000C7FB28B12946204600F0B6FB002070BDFA
:103870000520FCE7034609B90E20704712B1501E1F
:10388000104008B10920F8E71960501E9880002008
:103890009860D86000BFF0E770B504460D4620463A
:1038A00000F0A6FBA188884205D82946204600F0F2
:1038B000B2FB002070BD0420FCE7000010B50248F8
:1038C00001F082FC002010BDF40A002010B50A4867
:1038D000FFF7BCFF044600BF0CB1204610BD00BF7F
:1038E0000648FFF7B3FF044600BF0CB12046F5E7DA
:1038F00000BF0020F2E70000480E0020580E002014
:103900002DE9F04104460F48077821460E48FFF79D
:10391000A2FF804697B100200A49087001220B4996
:103920000B4801F03FFA054600BF2E4626B100BF06
:103930003046FFF77DFF00BF00BF00BF4046BDE837
:10394000F0810000020B0020480E0020010B002037
:10395000F40A00202DE9F04188B004460D461746D0
:1039600098462E4807601DB9072008B0BDE8F081D1
:10397000A88882B22A482968FFF77CFF064600BF64
:103980000EB13046F1E700BFA88982B22548A96888
:10399000FFF770FF064600BF0EB13046E5E700BFF7
:1039A000202221496846FEF73DFE60690690207C92
:1039B00008B1012000E000208DF814008DF81C8073
:1039C000607C08B10E2000E000208DF81500E06852
:1039D0000290A06803902068019060680090134AEC
:1039E0006946134801F09CF9064600BF0EB1304607
:1039F000BBE700BF00200F4908702068401C58B189
:103A00009DF81D0010B90A4801F036FA01220A4952
:103A1000074801F0C7F9A8E70020A6E7FC0A002044
:103A2000480E0020580E0020B8600100915C010093
:103A3000F40A0020020B0020010B002070B50446A0
:103A400021460B48FFF728FF054675B9094801F0E4
:103A5000ADFB50B908490648FFF7FDFE28B9012221
:103A60000549044801F0ECFA0546284670BD0000FF
:103A7000580E0020F40A0020000B002010B5044668
:103A8000204601F08BFE10BD70B5044625460E4859
:103A90008068B0B1ADB9FFF79BFC06460A480068E4
:103AA0000A490860084840684FF0E021C1F8040165
:103AB0000020054988601EB900BF62B600BF00BF84
:103AC00000BF00BF70BD00003C0E002000E100E020
:103AD00070B505460C462068401C28B1206801F0EE
:103AE00041FC206801F0F7FB6068401C18B1002120
:103AF000606801F0E3FB28792D4901EB4010007F5D
:103B000050B32868A169C0F8241500BF617D227DEB
:103B1000286841EA0203C0F86C3500BFD4E90012FE
:103B2000286801F0BDFC207D01283FD1A068401C21
:103B300018B10021A06801F0C1FBE068401C28B169
:103B4000E06801F00FFCE06801F0C5FBD4E9022158
:103B5000286801F091FC29E02868A169C0F82415C3
:103B600000BF617D227D286841EA0203C0F86C3500
:103B700000BFD4E90012286801F065FC207D01280F
:103B800014D1A068401C18B10021A06801F096FB78
:103B9000E068401C28B1E06801F0E4FBE06801F057
:103BA0009AFBD4E90221286801F036FC70BD0000C0
:103BB0001C0E00204FF0FF31054A42F82010082863
:103BC00004DBFF23A0F1080150325354704700007A
:103BD000C40D00200146024850F821007047000043
:103BE000C40D00202DE9F04F03460C464FF0FF397D
:103BF0000AB1002000E0082084460AB1082000E055
:103C00000C208046614624E0154850F82100401CF5
:103C1000F0B91D460846274616464FFA80FBDFF8E6
:103C200040A00AF1300A0AF805B0DFF834A04AF8DB
:103C300020704EB94FFA85FBA0F1080ADFF820E0AA
:103C40000EF1500E0EF80AB000BF4FFA81F902E0F3
:103C5000491C4145D8D300BF4846BDE8F08F00005D
:103C6000C40D00200146014840567047F40D002065
:103C700070B505460DB9094C01E0084C083409E05F
:103C8000204600F0D1FA064606B904E028467168DD
:103C9000884700BFF4E700BF70BD0000B80D0020EA
:103CA0002DE9F04782461F480068002836D01D489D
:103CB0000068056801F09CFC07461B480468214623
:103CC000384601F039FEC61C1848007808B901F0E2
:103CD00095FCAE4201D2284600E03046044424F070
:103CE0007F44204601F07EFC01F082FC804639468C
:103CF000404601F021FE00F103093946204601F05B
:103D00001BFE814509D901F073FC814601F06AFC74
:103D10002F2000F0A5FD01F017FF01E001F08CFC61
:103D2000BDE8F087D80A0020DC0A0020F00A002055
:103D3000014614480078144A127890421DD0114868
:103D40000078401C0F4A107010460078022801D1FC
:103D5000002010700D480B4A127850F822000860BD
:103D60000B4A086812681044094A1060104600683F
:103D700020F07F401060012070470020086000BFE5
:103D8000FAE70000E80A0020E90A0020E00A002023
:103D9000DC0A002013480078062820D11148001DB5
:103DA000007800F00F00D0B90E480830007800F01D
:103DB000F000302801D1012070470A48083000780F
:103DC00000F0F000402801D10120F5E70548083057
:103DD000007800F0F000502801D10120ECE700202D
:103DE000EAE70000E00F00F00A48007806280ED14C
:103DF0000848001D007800F00F0040B90548083061
:103E0000007800F0F000302801D101207047002038
:103E1000FCE70000E00F00F013480078062820D1EE
:103E20001148001D007800F00F00D0B90E4808308E
:103E3000007800F0F000302801D1012070470A48D6
:103E40000830007800F0F000402801D10120F5E7AB
:103E500005480830007800F0F000502801D101201A
:103E6000ECE70020EAE70000E00F00F00A480078E5
:103E700006280ED10848001D007800F00F0040B958
:103E800005480830007800F0F000302801D101200A
:103E900070470020FCE70000E00F00F013480078B6
:103EA000062820D11148001D007800F00F00D0B97D
:103EB0000E480830007800F0F000302801D10120D1
:103EC00070470A480830007800F0F000402801D11F
:103ED0000120F5E705480830007800F0F000502890
:103EE00001D10120ECE70020EAE70000E00F00F03C
:103EF0000A48007806280ED10848001D007800F016
:103F00000F0040B905480830007800F0F000302874
:103F100001D1012070470020FCE70000E00F00F015
:103F20000A48007806280ED10848001D007800F0E5
:103F30000F0040B905480830007800F0F000302844
:103F400001D1012070470020FCE70000E00F00F0E5
:103F50000A48007806280ED10848001D007800F0B5
:103F60000F0040B905480830007800F0F0005028F4
:103F700001D1012070470020FCE70000E00F00F0B5
:103F8000F0B5034600241FE0124E306806689E42DA
:103F900003D90668F61A06601AE006689B1B0668D5
:103FA0003444002606600B4E35680A4FC6693E60F1
:103FB000C66846B10E1926F07F464660C668866020
:103FC0001668C661156000BF024800680028DBD192
:103FD00000BFF0BDD80A002070B504460D462A4641
:103FE0000021204600F00EF8A068401CA06070BDC3
:103FF00001468A68C868801A704701468A68C8689E
:10400000801A704710B583680B4484882340046885
:10401000E35C137010BDC26883881A40036899542A
:10402000C268521CC26070477CB500F0CDFD0446EA
:1040300000BF254625B100BF2846FFF7F9FB00BFAA
:1040400000BF14480068019000208DF80500009022
:104050006946032000F0EEFD044600BF254625B169
:1040600000BF2846FFF7E4FB00BF00BF0A4A01A9D2
:10407000052000F031FD044600BF254625B100BFF4
:104080002846FFF7D5FB00BF00BF0121052000F047
:10409000CDFC7CBD446001009D40010010B504468C
:1040A000052C1BD100F086FD60B101200D49086090
:1040B0000DA10020FEF740FDFFF792F9032000F06C
:1040C0001FFE0AE000200749086008A1FEF734FD42
:1040D000FFF792F9032000F0A7FD00E000BF00BF4A
:1040E00010BD0000A00A00206F6E00006F66660021
:1040F000F8B52548007800B9F8BD002523480068C8
:1041000008B9012000E00020064600BFDDB92048C4
:10411000007800B1F0E7684648DF0446052C01D17D
:1041200001250FE024B100BF2046FFF781FB09E025
:10413000009800F02FFC1748006818B11549009846
:104140000968884700BFBEB91148007800B1D3E7BD
:10415000114A02F12101481EC1DF0446052C01D19C
:10416000012609E024B100BF2046FFF761FB03E010
:1041700009480649096888470DB106B100E0C5E75E
:1041800000BF00BFB8E70000080B00200C0B0020A8
:10419000090B0020100B0020F010002070B5044621
:1041A0000D4620791D4901EB4010007FF8B14FF416
:1041B0008871206801F059F94FF49071206801F07E
:1041C00054F94FF49271206801F04FF94FF4A27145
:1041D000206801F04AF91249206801F056F9206878
:1041E00000F01EFC0646294600F0EAFB14E04FF4FE
:1041F0008E71206801F009F94FF4A271206801F076
:1042000004F90849206801F00FF9206800F008FC63
:104210000646294600F0D4FB70BD00001C0E0020AD
:1042200010030200800002000146086808B102681D
:104230000A60704770B51C4804781C48066827E07F
:104240001948406804EB440100EBC105601CC4B28E
:1042500015488078A04200D100242878022802D096
:10426000032812D103E0686801F0ECFB0EE007E0E0
:104270000E490868002101740C4AC169116000BF31
:104280000A4800680028F3D100E000BF00BF00BF6B
:1042900005484078A042D3D104480068B04201D01C
:1042A000012070BD0020FCE7D00A0020D80A0020C1
:1042B0002DE9F0410546374807685AE015B12C460C
:1042C000E56929E034494968334A127802EB420231
:1042D00001EBC20030490978491C2F4A1170114680
:1042E00009789278914202D100212B4A11704468DA
:1042F0000178012901D1217C01B13AE08168616036
:10430000C168A1600169E1604169A161234909783F
:1043100009B10021616000BF214960680968401A45
:1043200020F07F401F49884208D21D496068096813
:1043300001F002FBA168084420600FE018486168A2
:10434000006801F0F9FA0646A068B04203D9A068F7
:10435000801B206001E00020206000BF0020606022
:10436000A060012020740020E061204601F036FBAF
:1043700000BF002DA2D1084800780749497888423B
:104380009CD104480068B84202D00120BDE8F08109
:104390000020FBE7D80A0020D00A0020F10A002004
:1043A000DC0A0020FFFF7F0000BF00BF01203DDFCF
:1043B0002FA10020FEF7C0FB01F08CFAFFF734FEBE
:1043C000032000F031FCFFF739F800202A4908608B
:1043D0002AA1FEF7B1FB052000F0ECFB80B101F053
:1043E000C1FC26A10020FEF7A7FB2649032001F00F
:1043F00079FD012024490860032000F081FC00E0E1
:1044000032DF00BF21480068D0B120480068012891
:1044100009D1FEF7E5FF00201C4908601C490B206C
:1044200001F060FD0CE019480068022808D1FEF791
:10443000D7FF0020154908601649052001F052FDFC
:104440001548006838B1002013490860012013495D
:10445000086000F025F83EDF044600BF254625B180
:1044600000BF2846FFF7E4F900BF00BFCAE700001D
:10447000496E697420320000900A0020496E697408
:10448000000000008A0A0020A00A0020A80A0020DC
:10449000180B0020B10A0020C80A00209C0A002046
:1044A00070B5D04800784C287DD00BDCA0F14100DD
:1044B0000B2879D2DFE800F0B99D5F83237878F488
:1044C0007878D100512834D006DC4D286DD04E28A4
:1044D0000ED04F2868D104E0532867D0C528F9D101
:1044E00033E10020C0490860C048FFF729F96FE1B7
:1044F0004020BF494870BD48FFF75CF968E14020A3
:10450000BB49487000208870B6480078C870B7482A
:1045100001780020CDDF04461CB10120B4490871A8
:1045200002E00020B2490871B149052001F0DAFC2F
:104530004EE14020AE49487000208870A9480078BC
:10454000C870AA480078A94E767800EB062081B2A0
:10455000A648C37882780020D3DF04461CB101202E
:10456000A349087102E00020A1490871A049052073
:1045700001F0B8FC2CE140209D4948700020887073
:1045800098480078C870994800784FF4004191FB32
:10459000F0F085B229460020D1DF04463CB101206D
:1045A0009349087106E07CE00DE194E0D7E000203B
:1045B0008F4908718E49052001F094FC08E14020E4
:1045C0008B4948700020887086480078C8708748FA
:1045D00001780020D6DF04461CB10120844908710F
:1045E00002E00020824908718149052001F07AFC2F
:1045F000EEE040207E4948700020887079480078BD
:10460000C8707A488378427801780020C2DF044677
:104610001CB101207649087102E00020744908713C
:104620007349052001F05EFCD2E0402070494870DB
:10463000002088706B480078C8700020C3DF0446F3
:104640001CB101206A49087102E000206849087124
:104650006749052001F046FCBAE0402064494870F3
:10466000002088705F480078C8706248006878B998
:1046700000210846C4DF04461CB101205C490871D2
:1046800009E000205A49087101205A49086002E0F7
:104690000020574908715649052001F023FC97E096
:1046A00075E0402052494870002088704D480078DD
:1046B000C8700020C5DF04461CB101204C490871B8
:1046C00004E000204A4908714A4908604849052029
:1046D00001F008FC7CE045480078512802D05228BF
:1046E00031D121E0444B454A45490020D4DF0446FE
:1046F00094B951203E49487041480078C8704048FC
:104700000088001208713D48007848713A480078E6
:104710008871072001F0E6FB3948008818B939A1F3
:104720000020FEF709FA0EE038490020E7DF0446D2
:1047300044B952202E49487034480078C87004208B
:1047400001F0D0FB00BF00BF42E00020304908600C
:10475000FEF752FE032000F067FA32DF38E0402017
:1047600023494870002088701E480078C870E9DF2F
:1047700004463FDF1CB101201D49087102E0002002
:104780001B4908711A49052001F0ACFB20E04020CC
:10479000174948700020887012480078C870134983
:1047A000087800231A460421EADF04461CB10120E0
:1047B0000F49087102E000200D4908710C490520DD
:1047C00001F090FB04E007480078FFF737F900BFDD
:1047D00000BF06480021016041600E480160416051
:1047E00070BD0000C40A0020A80A0020BC0A0020F6
:1047F000B10A0020A40A0020BA0A0020B90A002049
:10480000CC0A00204E756C6C00000000BB0A002032
:10481000A00A0020230B002030B502460B46D40826
:1048200002F00702012090401D5D284030BD014686
:104830004FF08040405808B1012070470020FCE74D
:1048400008B500224FF080410A500958009100BF7E
:1048500008BD0000014908607047000008030040DF
:1048600000B9704700BF00BF00BF00BF00BF00BF5E
:1048700000BF00BF00BF1E4909681E4A914200D117
:1048800030E000BF00BF00BF00BF00BF00BF00BFDF
:1048900000BF00BF00BF00BF00BF00BF00BF00BF20
:1048A00000BF00BF00BF00BF00BF00BF00BF00BF10
:1048B00000BF00BF00BF00BF00BF00BF00BF00BF00
:1048C00000BF00BF00BF00BF00BF00BF00BF00BFF0
:1048D00000BF00BF00BF00BF00BF00BF00BF00BFE0
:1048E00000BF00BF401E00D0BDE700BFB9E7000019
:1048F000140B00200024F40010B5002416480078A2
:1049000008B1852425E000201349886048600861CB
:10491000C86000BF00BF4109890001F1E021D1F862
:10492000001101228240114009B1012100E0002163
:1049300019B90721002000F043F800BF00F0C4FFC0
:1049400020B901200549086000BF00BF01200249CD
:104950000870204610BD0000B00D00201805004072
:1049600008B5002000906846FFF788F808480078EE
:1049700008B9FFF7C1FF0648C068401C0449C86079
:10498000012088709DF80000FFF77EF808BD000048
:10499000B00D002010B5044614B90020FFF768F9E7
:1049A00010BD000000BF00F01F0201219140034A2A
:1049B000430942F8231000BF7047000080E100E087
:1049C00070B50B4601461A46002907DA5407260E31
:1049D000104C01F00F052D1F665503E05407250EFE
:1049E0000D4C655400BF00BF00F01F020121914033
:1049F0000A4A440942F8241000BF00BF00F01F0219
:104A0000012191404209920002F1E022C2F8001116
:104A100000BF70BD18ED00E000E400E080E200E0BF
:104A20000146C1F3073250B2704700002DE9F0474C
:104A300006460D46304600F049FDE0B13046FFF72E
:104A400011F9083822490F5CBC11032C08D13046FB
:104A500000F071FC08B1032000E00220804605E070
:104A6000012C01D1022000E003208046414630465F
:104A700000F03DFC2AE0304600F034FD30B3304613
:104A8000FFF7F0F80446A00000F5807087B22046DA
:104A9000104951F8201041F001020E4941F8202040
:104AA00000BF384600F084FC7DB13046FFF7DAF8ED
:104AB0008146FFF78FF88046B8F1000F04D001213E
:104AC00001FA04F000F08EFC00BF00BFBDE8F087E3
:104AD000140E0020106500402DE9FC4704460E46E8
:104AE00017464FF00008204600F0E2FC10B14FF0EE
:104AF000080855E0F27839462046FFF773F8054676
:104B0000681C002849D0B07880B100BF00BF4FF0CA
:104B1000A042104600F5E06252F8242022F0020183
:104B200000F5E06242F8241000BF0CE096F8019016
:104B3000002000904B46024601460190204600F0BE
:104B400089FB00BF00BFF078D0B13078164951F82A
:104B50002510164A1140144A42F82510114651F802
:104B600025104FF4F85202EA04224FF4403303EACE
:104B700000431A4311430C4A42F8251000BF0EE0CF
:104B8000A5F108000A49085C317840EA811042B278
:104B9000A5F1080006490A5401E04FF0040800BFDF
:104BA0004046BDE8FC87000010650040FFE0FCFFC8
:104BB000140E002010B50446204600F0BCFB08B1DE
:104BC000012010BD0020FCE770B5164890F8540095
:104BD00010B10825284670BD002404E0204600F0EE
:104BE00091FC601CC4B2202CF8DB002404E02046B9
:104BF000FEF7E0FF601CC4B20C2CF8DB0721062096
:104C0000FFF7DEFE4FF4BE7000F0D2FB4FF0004025
:104C100000F0E8FB0120034981F8540000252846F4
:104C2000D9E70000C40D002010B50446204600F06E
:104C300077FB10BD2DE9FC4104460E4600272046B7
:104C40002C490956491C09B1012100E0002109B194
:104C500008274BE0B07860B3012200212046FEF720
:104C6000C1FF0546681C10B330787178224A52F8AB
:104C70002520224B1A40204B43F825201A4652F893
:104C800025304FF4F85202EA04224FF4403C0CEA7B
:104C9000004C42EA0C024FF4801C0CEA015C42EA30
:104CA0000C021343144A42F8253000BF00E00427E9
:104CB00005E000BFFE210F48015500BF00BFAFB99E
:104CC0007078012803D1204600F041FB02E0204625
:104CD00000F026FB00BF0020009003460122114691
:104CE0000190204600F0B6FA00BF00BF3846BDE88C
:104CF000FC810000F40D002010650040FFE0ECFF97
:104D000010B50446204600F022FB10BD014601F01C
:104D10006040B0F1005F01D1012070470020FCE746
:104D20002DE9F04105460E46174628791C4901EB4E
:104D300040144FF00008E07E20B14FF008084046D4
:104D4000BDE8F081707F207731462846FEF7C0FE2F
:104D5000676030692060606818B1317F2846FFF7CE
:104D60001DFA00BF28790E4901EB4010007F28B1E1
:104D700028680821C0F8001500BF05E02868042154
:104D8000C0F8001500BF00BF00BF0020E07520760E
:104D9000A0750120E0760020A0764046D0E7000014
:104DA0001C0E00202DE9F04704460E4617462079D8
:104DB000304901EB4015207901EB4010007F40B1F4
:104DC0003046FFF7A3FF20B94FF010084046BDE87A
:104DD000F0874FF00009686880B12079254901EB20
:104DE0004010007F28B14FF40471206800F04AFBA6
:104DF00004E04FF40171206800F013FBE87DD0B1AE
:104E0000287EB0B1686880B120791A4901EB401062
:104E1000007F28B14FF40471206800F036FB04E0F5
:104E20004FF40171206800F0FFFA4FF0110840467E
:104E3000CDE74FF00109B9F1000F05D1EF75EE6034
:104E400000206876287601E02E612F7620790949C6
:104E500001EB4010007F30B14B463A4631462046C8
:104E600000F08AF8B3E74B463A463146204600F058
:104E70001DF8ACE71C0E002010B5044620790A4945
:104E800001EB4010007F68B9207901EB4010807E73
:104E900040B9204600F02AFC01202179024A02EBA9
:104EA0004111887610BD00001C0E00202DE9F05F36
:104EB00004468B46994620792E4901EB4015A87E81
:104EC00028B9B9F1000F02D1204600F00FFC686844
:104ED000002846D14FF4A271206800F096FA00BF76
:104EE00000BF4FF49271206800F088FA80464FF4BA
:104EF0008471206800F082FA82464FF4A271206823
:104F000000F07CFA0646BAF1000F03D116B9B8F1E9
:104F1000000FE6D0B8F1000F00D106B107E0294636
:104F2000206800F0B5FBE87D697E8842D8DC00BFD0
:104F30000020E875B8F1000F03D003273846BDE81C
:104F4000F09F16B10F273846F9E7A87E20B100215F
:104F5000206800F075FA03E00421206800F070FA80
:104F600004E04FF40171206800F05EFA0027384633
:104F7000E5E700001C0E00202DE9F05F04460D4619
:104F8000164699464FF0000A4FF48871206800F0E9
:104F90006CFA4FF4A271206800F067FA2068C0F83C
:104FA00034554FF4A7610E5000BFB9F1000F04D182
:104FB0000021206800F071FA08E020212068D0F874
:104FC00000220A43C0F8002200BF00BF20791B491D
:104FD00001EB4010406848BB00BF4FF48871206867
:104FE00000F03CFA83464FF4A271206800F036FAD4
:104FF00080464FF49271206800F030FA0746BBF10A
:10500000000F04D1B8F1000F01D1002FE5D000202E
:1050100021790A4A02EB4111C8750FB14FF0030A1A
:10502000B8F1000F01D04FF00F0A04E04FF4047103
:10503000206800F02AFA5046BDE8F09F1C0E0020C0
:105040002DE9F04104460D4690462079144901EBC4
:105050004016207901EB4010007F38B12846FFF759
:1050600055FE18B910273846BDE8F081204600F0FB
:105070009DF810B111273846F6E786F81680B5601E
:105080000020B0822079064901EB4010007F18B162
:10509000204600F04DF8E7E7204600F003F8E3E78C
:1050A0001C0E002070B504462079204901EB401504
:1050B00000264FF48E71206800F0A7F908212068BF
:1050C00000F0BEF92946206800F043FD686858BB2F
:1050D00012E000BF4FF48E71206800F08FF918B90C
:1050E000A88AB0F5807FF5D1A88AB0F5807F03D07B
:1050F0002946206800F02DFDA88AA97D8842E8DBBA
:10510000A88AB0F5807F01D10F260BE000BF4FF4D5
:105110008E71206800F072F90028F8D00C21206808
:1051200000F08EF90020A875304670BD1C0E0020DE
:105130002DE9F041044620791B4901EB40154FF061
:1051400000084FF49071206800F08FF94FF4AC71B3
:10515000206800F08AF92068AA7DA968C0F8441583
:105160004FF4A9631A5000BF0821206800F095F998
:105170006868A8B900BF4FF49071206800F06EF91C
:1051800007464FF4AC71206800F068F906460FB985
:10519000002EF0D00EB14FF00F080020A87500BF10
:1051A0004046BDE8F08100001C0E00200146087951
:1051B000044A02EB4010807D08B1012070470020B6
:1051C000FCE700001C0E002070B5044620791F4942
:1051D00001EB401500BF207901EB4010007F28B1A2
:1051E00020680021C0F8001500BF05E020680021FC
:1051F000C0F8001500BF00BF00BF6868F0B100BF75
:105200002079124901EB4010007F50B1104920680D
:1052100000F038F92068FFF703FC0646FFF7C2FBF1
:105220000AE00B498C39206800F0FBF82068FFF792
:10523000F7FB0646FFF7B6FB00BF00BF204600F0B5
:1052400067F90020E876686070BD00001C0E002041
:1052500010030200F0B5DDE9054500BF4FF0A0479F
:105260003E4641EA420747EA830747EA042747EAFE
:10527000054C06F5E06747F820C0F0BDF0B5DDE964
:10528000054500BF4FF0A0473E4641EA420747EAC6
:10529000830747EA042747EA054C06F5E06747F825
:1052A00020C0F0BD1CB5044600200090034601223A
:1052B000014601902046FFF7E1FF1CBD7CB5054685
:1052C0000C460020009023460246014601902846E5
:1052D000FFF7D4FF7CBD1CB50446002000900346B8
:1052E0000122114601902046FFF7C8FF1CBD10B5F2
:1052F0000A4600BF4FF0A043194601F5E06353F89A
:10530000203023F4403401F5E06343F8204053F8A3
:10531000203043EA024401F5E06343F8204010BD29
:1053200000BF4FF0A0410A46012303FA00F1C2F882
:105330000C1500BF7047014600BF4FF0A040024669
:1053400000BFD2F81005C84000F00100704700BF50
:105350004FF0A0410A46012303FA00F1C2F80815F4
:1053600000BF704700BF4FF0A0410A46012303FA77
:1053700000F1C2F8081500BF7047000038B50B46B1
:10538000074C24680094014606E05DF82140D4F8FB
:1053900010551560121D491CC4188C42F5D838BD33
:1053A00070600100014601480844704700600040F9
:1053B00038B504462046FFF7F5FF0021016020467E
:1053C000FFF7F0FF0068009000BF38BD10B504463D
:1053D0002046FFF7E7FF0068012800D110BD00203C
:1053E000FCE70000014908607047000004630040CA
:1053F0000146D1F88004C1F8800470470246505835
:1054000008B1012070470020FCE708B50022425097
:105410004258009200BF08BDC0F80815C0F810251A
:105420007047C0F808137047C0F80413704702466D
:10543000D2F80403084008B1012070470020FCE7BF
:10544000012242507047C0F81425C0F80C1570476F
:105450000146D1F88004C1F88004704702465058D4
:1054600008B1012070470020FCE708B50022425037
:105470004258009200BF08BDC0F808154FF4A2635F
:105480001A507047C0F808137047C0F804137047EB
:10549000014640F23C50405870470122425070474C
:1054A00040F20C53195040F214531A507047000048
:1054B000014605484056012202EBE07008B1012088
:1054C00070470020FCE70000F40D0020014604486E
:1054D0004056082801DB012070470020FCE700004F
:1054E000F40D0020014606484056002805DB04481C
:1054F0004056082801DA012070470020FCE7000030
:10550000F40D0020FF2201490A547047F40D0020D9
:105510002DE9F04704462079314901EB4010007F26
:1055200020B3206840F20C510D5800BF206840F2B3
:1055300014510E5800BF2068D0F8087500BF2068CD
:10554000D0F8108500BFD4F800904FF0FF3211461C
:105550004846FFF7A5FF00BFD4F800904FF0FF3298
:1055600011464846FFF788FF00BF22E02068D0F8C8
:105570000C5500BF2068D0F8146500BF2068D0F833
:10558000087500BF2068D0F8108500BFD4F80090DF
:105590004FF0FF3211464846FFF755FF00BFD4F8E1
:1055A00000904FF0FF3211464846FFF735FF00BF2D
:1055B00000BF681C10B12846FFF774FE701C10B1C4
:1055C0003046FFF76FFE08F1010010B14046FFF7CB
:1055D00069FE781C10B13846FFF764FEBDE8F0871D
:1055E0001C0E002001490860704700004015014072
:1055F00001480068704700000415014010B54FF4E1
:1056000080300A4908600A49C1F804031120FDF7F7
:10561000B3F91120FDF7C8F90120054908602F20D2
:10562000FFF71EF901200349087010BD4413014023
:1056300000100140F00A002010B511200121814026
:105640000E4A430942F8231000BF4FF480300C4942
:1056500008600C49C1F80803012048602F20FFF7BB
:10566000FFF80120074988600020074908602F20C3
:10567000FFF7F6F800200549087010BD80E100E052
:105680004813014000100140DC0A0020F00A00200D
:1056900070B505460C46E07D40B94FF4847128464C
:1056A000FFF7B3FE00BFD5F8180570BD4FF4847145
:1056B0002846FFF7AAFE00BFD5F81805C0B2627EE3
:1056C000E1688854607E401C607600BFEDE77FB5DE
:1056D00004460D46164601208DF800008DF808504E
:1056E00001966846D4E9001290477FBD10B5044684
:1056F0004FF492712068FFF788FE4FF484712068A0
:10570000FFF783FE00212068FFF79AFE10BD00001E
:1057100010B504462046FDF73FFE10B942F20100E5
:1057200010BD2146002906DA194A01F00F031B1F9C
:10573000D25C520902E0174A525C5209104608280E
:1057400001D3002109E028B1012803D0042801D0A9
:10575000052801D1002100E0012111B942F2020027
:10576000DEE70D48806868B160090B4951F82000F8
:1057700004F01F020121914008436109064A42F8E2
:10578000210002E02046FDF71AF90020C8E70000DA
:1057900018ED00E000E400E03C0E002070B5044687
:1057A000FDF716FE054614488068D8B90120124955
:1057B000886012480068124908400F490860104884
:1057C0004FF0E021C1F880010C488038D0F8840007
:1057D000094948604FF0FF310848001D0160002072
:1057E000207001E0012020701DB900BF62B600BF2B
:1057F00000BF002070BD00003C0E002080E100E0F2
:10580000FC06FFBD014600BF09B90E20704700BF6E
:10581000014801600020F9E70C0B002070B5044638
:105820000D461646324629462046FDF7DFFF70BD7D
:105830002DE9F0470746884691461E461548066002
:1058400000204109890001F1E021D1F80011012275
:105850008240114009B1012100E000210D4600BF46
:1058600015B10020FDF794F80BA21549384610DF5A
:10587000044634B115B10020FDF7A1F82046BDE87B
:10588000F08701200F490870FFF76AF81620FFF72C
:105890003FFFF4E7040B0020643139372D323762C3
:1058A000382D633136312D376630312D393261353F
:1058B0002D633636322D383137662D6365376600F5
:1058C0001D580100080B00200148007870470000B7
:1058D000080B002038B51648006800901548FFF7FF
:1058E00091FF044600BF254625B100BF2846FDF7BD
:1058F0009FFF00BF00BF00231A4619466846FFF706
:1059000097FF044600BF254625B100BF2846FDF796
:105910008FFF00BF00BFFDF75FFF044600BF2546B5
:1059200025B100BF2846FDF783FF00BF00BF38BD8B
:1059300048600100C53401000246501A20F07F4043
:105940007047000070B504460B48006878B10A4AF9
:10595000D4E9050112689047054600BF2E4626B1DE
:1059600000BF3046FDF764FF00BF00BF02E0D4E98E
:105970000510884770BD0000EC0A00202DE9FC41AD
:10598000002001900F4804680F4807686846FEF73A
:10599000CFF90546FEF74EFC06462DB101AA214679
:1059A0000098FEF7EDFA01260198FEF781FC00B1A0
:1059B000012616B13846FEF773F900200349087036
:1059C000BDE8FC81DC0A0020D80A0020F10A002092
:1059D00010B51420FCF7FEFF10BD000010B51849EB
:1059E000096811B91649086028E0154A016812686B
:1059F000126891420DD81249096809680268891A2B
:105A00000F4A126811600E490968C1610C490860AB
:105A100014E002680A4C2368216803E00C68121B3A
:105A20000B46C96911B10C689442F7D311B10C68E7
:105A3000A41A0C600260C161D86100BF10BD0000F3
:105A4000D80A002030B50246154C2168084604E00B
:105A5000904200D103E00146C0690028F8D100BFA0
:105A600000B930BD814210D10D4C2468E4690C4D61
:105A70002C602C46246844B901240A4DAC600024F3
:105A8000094D2C600124094D2C700368C469CC6158
:105A9000C86910B104681C44046000BFE1E700005D
:105AA000D80A002000100140DC0A0020F10A002082
:105AB0002DE9F0411F480068002838D00027FFF783
:105AC00097FD80461C4801684046FFF735FF0646B3
:105AD0001848056810E02868B04200D90EE0286830
:105AE000361A286807442C46ED69207C20B1002036
:105AF00020742046FFF726FF002DECD100BF0F4891
:105B000000780F490978884209D10D480078401C77
:105B1000C0B20B490870022801D100200870094862
:105B20000749097840F82170FFF752FF00BFBDE830
:105B3000F0810000D80A0020DC0A0020E80A0020DA
:105B4000E90A0020E00A002010B51120FCF742FF0E
:105B500010BD70B505460C464FF48E712846FFF710
:105B600054FCA18AA068465CA08A401CA0823046F2
:105B7000C5F81C0500BF70BD7FB504460D4600206A
:105B80008DF800008DF80850A06801900020A075E5
:105B90006846D4E9001290477FBD000070B5044606
:105BA0000025207840B1012857D002284FD0032883
:105BB00059D1FDF721FC57E02C492D4A127888185D
:105BC000FDF79EFE2A48007820B928482849097820
:105BD000455C04E0254826490978405C4540244856
:105BE0000078401C224908702048407821490870FC
:105BF0001E488078204908701D4801781D480078AB
:105C0000C01C814222DD1B48007800281EDD1BA13C
:105C10000020FCF791FF16480078401E1349085CED
:105C2000A84213D113480078421E091D1548FCF7FD
:105C3000B4FC002014498870012014490860002039
:105C40000B49087009480021016041600CE000BF69
:105C50006068FDF7EDFD00BF06E000BF6068FDF77E
:105C6000E7FD00BF00E000BF00BF70BD230B0020B8
:105C7000CE0A0020CF0A0020C40A00205258200A71
:105C800000000000BC0A0020B10A0020C80A002061
:105C90007CB504460E46207800283FD0012802D06B
:105CA00002284ED12BE0606801782748FDF7F4FD0B
:105CB000054645B101208DF800000195684623494D
:105CC000096888470AE02048FEF797F930B10020BC
:105CD0008DF8000068461D49096888471A48FEF794
:105CE0008CF919498988884205D801221849194830
:105CF000FFF758F802E001201749087022E002205F
:105D00008DF80000E0680190012211491148FFF769
:105D100049F868460D490968884713E00F4910485B
:105D2000FDF799FD28B901220C490A48FFF788F9C7
:105D300006E003208DF8000068460449096888479A
:105D400000E000BF00BF7CBD480E0020FC0A002020
:105D5000010B0020F40A0020020B0020000B0020A1
:105D6000580E00201FB500BF094800904FF4807006
:105D70000190084802904FF4807003900223064A75
:105D800069460648FDF7E6FD044600BF1FBD00005A
:105D9000300B0020300C00209D5B01004C600100A6
:105DA0002DE9FF4105460C464FF400712846FFF7E8
:105DB0003EFB48B34FF492712846FFF71FFB18B320
:105DC0004FF492712846FFF720FB4FF401712846EB
:105DD000FFF727FBA07E18B904212846FFF730FB08
:105DE00002208DF800002846FFF702FB0390E17DBA
:105DF0008DF80810E06801900020E0752076684674
:105E0000D4E90012904736E004212846FFF70FFB43
:105E1000002830D04FF484712846FFF7EFFA50B3D2
:105E200021462846FFF734FCE07D617E884222D17E
:105E3000207E70B1E668677E207EE0752069E060B4
:105E4000002020766076324639462046FFF73FFC38
:105E500011E0A07E18B904212846FFF7F1FA4FF4AB
:105E600001712846FFF7DDFA0020E075617EE268E7
:105E70002046FFF72CFC4FF48E712846FFF7BEFA40
:105E800098B1A08AA17D884204DA21462846FFF70E
:105E900060FE0AE04FF48E712846FFF7B6FAA07D47
:105EA00018B1A17D2046FFF767FE4FF4A271284686
:105EB000FFF7A4FA98B14FF4A2712846FFF7A5FAAC
:105EC000A07E18B100212846FFF7BAFAE07D30B174
:105ED0000020E075617EE2682046FFF7F8FBBDE830
:105EE000FF8100002DE9F04107460C4600200C49D7
:105EF00008609CB1B81E2070A426A420FDF79EFD6A
:105F0000002506E0605DFDF799FD605D4640681C78
:105F1000C5B2BD42F6DB3046FDF790FDBDE8F0812D
:105F20009C0A00202DE9FF4105460C464FF4927172
:105F30002846FFF793FAD8B14FF492712846FFF73D
:105F400094FA02208DF800002846FFF781FA0390AA
:105F50002846FFF79DFAC1B28DF80810E06801905D
:105F60000020E07520766846D4E9001290472FE0C3
:105F70004FF488712846FFF771FA48B34FF48871DF
:105F80002846FFF772FA2846FFF782FAC6B2E07D8C
:105F9000B0421CD1207E98B1E7682020D5F80012CD
:105FA0008143C5F8001200BF207EE0752069E060E3
:105FB000002020763A4631462046FFF788FB06E06F
:105FC0000020E07531462046E268FFF780FB00BF05
:105FD0004FF4A2712846FFF741FA88B14FF4A2713D
:105FE0002846FFF742FAE07D50B10020E0752846D0
:105FF000FFF74EFAC6B231462046E268FFF767FB6C
:106000004FF490712846FFF729FA78B14FF4907158
:106010002846FFF72AFAA07D40B100BF40F24C505D
:106020004059C6B231462046FFF7A6FDBDE8FF81C4
:106030004FF04070E1EE100A70470000F9ED22B811
:10604000FD5667CD030000010010040708000000A2
:1060500006000000090000000A0000000000000027
:1060600000F0EB0001002000300D00208000000057
:10607000000000506E72665F6472765F6770696FD1
:1060800074655F696E6974006E72665F6472765FD4
:106090006770696F74655F6F75745F696E697400AE
:1060A0006E72665F6472765F6770696F74655F6950
:1060B0006E5F696E69740000FFFFFFFFFFFFFFFF67
:1060C000FFFFFFFFFFFFFFFF0000000000000000D8
:1060D0000000D60107010000303132333435363745
:1060E000383941424344454608610100800A002096
:1060F000980000003C240100A0610100180B002062
:10610000604600005824010000000000000000006C
:106110000001026F0100000000000000000000000C
:10612000000000000000000000000000000000006F
:10613000000000000000000000000000000000005F
:10614000000000000000000000000000000000004F
:10615000000000000000000000000000000000003F
:10616000000000000000000000000000000000002F
:1061700000000000000000000000000000200040BF
:10618000000000000000000000000000000000000F
:106190000000000000000000000000000090D0039C
:0400000500012401D1
:00000001FF
